{
  "_format": "hh-sol-artifact-1",
  "contractName": "LeaseAgreement",
  "sourceName": "contracts/LeaseAgreement.sol",
  "abi": [
    {
      "inputs": [
        {
          "internalType": "string",
          "name": "_aggrementName",
          "type": "string"
        },
        {
          "internalType": "string",
          "name": "_ownerName",
          "type": "string"
        },
        {
          "internalType": "string",
          "name": "_tenantName",
          "type": "string"
        },
        {
          "internalType": "address",
          "name": "_tenant",
          "type": "address"
        },
        {
          "internalType": "uint256",
          "name": "_monthlyRent",
          "type": "uint256"
        },
        {
          "internalType": "uint256",
          "name": "_leaseDurationMonths",
          "type": "uint256"
        }
      ],
      "stateMutability": "nonpayable",
      "type": "constructor"
    },
    {
      "inputs": [],
      "name": "aggrementName",
      "outputs": [
        {
          "internalType": "string",
          "name": "",
          "type": "string"
        }
      ],
      "stateMutability": "view",
      "type": "function"
    },
    {
      "inputs": [],
      "name": "endDate",
      "outputs": [
        {
          "internalType": "uint256",
          "name": "",
          "type": "uint256"
        }
      ],
      "stateMutability": "view",
      "type": "function"
    },
    {
      "inputs": [],
      "name": "getRemainingLeaseDuration",
      "outputs": [
        {
          "internalType": "uint256",
          "name": "",
          "type": "uint256"
        }
      ],
      "stateMutability": "view",
      "type": "function"
    },
    {
      "inputs": [],
      "name": "landlord",
      "outputs": [
        {
          "internalType": "address",
          "name": "",
          "type": "address"
        }
      ],
      "stateMutability": "view",
      "type": "function"
    },
    {
      "inputs": [],
      "name": "leaseActive",
      "outputs": [
        {
          "internalType": "bool",
          "name": "",
          "type": "bool"
        }
      ],
      "stateMutability": "view",
      "type": "function"
    },
    {
      "inputs": [],
      "name": "leaseDuration",
      "outputs": [
        {
          "internalType": "uint256",
          "name": "",
          "type": "uint256"
        }
      ],
      "stateMutability": "view",
      "type": "function"
    },
    {
      "inputs": [],
      "name": "leaseTerminated",
      "outputs": [
        {
          "internalType": "bool",
          "name": "",
          "type": "bool"
        }
      ],
      "stateMutability": "view",
      "type": "function"
    },
    {
      "inputs": [],
      "name": "makePayment",
      "outputs": [],
      "stateMutability": "payable",
      "type": "function"
    },
    {
      "inputs": [],
      "name": "monthlyRent",
      "outputs": [
        {
          "internalType": "uint256",
          "name": "",
          "type": "uint256"
        }
      ],
      "stateMutability": "view",
      "type": "function"
    },
    {
      "inputs": [],
      "name": "ownerName",
      "outputs": [
        {
          "internalType": "string",
          "name": "",
          "type": "string"
        }
      ],
      "stateMutability": "view",
      "type": "function"
    },
    {
      "inputs": [],
      "name": "startDate",
      "outputs": [
        {
          "internalType": "uint256",
          "name": "",
          "type": "uint256"
        }
      ],
      "stateMutability": "view",
      "type": "function"
    },
    {
      "inputs": [],
      "name": "tenant",
      "outputs": [
        {
          "internalType": "address",
          "name": "",
          "type": "address"
        }
      ],
      "stateMutability": "view",
      "type": "function"
    },
    {
      "inputs": [],
      "name": "tenantName",
      "outputs": [
        {
          "internalType": "string",
          "name": "",
          "type": "string"
        }
      ],
      "stateMutability": "view",
      "type": "function"
    },
    {
      "inputs": [],
      "name": "terminateLease",
      "outputs": [],
      "stateMutability": "nonpayable",
      "type": "function"
    }
  ],
  "bytecode": "0x60806040523480156200001157600080fd5b50604051620015a2380380620015a28339818101604052810190620000379190620003a0565b326000806101000a81548173ffffffffffffffffffffffffffffffffffffffff021916908373ffffffffffffffffffffffffffffffffffffffff16021790555082600160006101000a81548173ffffffffffffffffffffffffffffffffffffffff021916908373ffffffffffffffffffffffffffffffffffffffff1602179055508160028190555062278d0081620000d09190620004c8565b60038190555042600481905550600354600454620000ef919062000513565b6005819055506000600660006101000a81548160ff0219169083151502179055506001600660016101000a81548160ff02191690831515021790555085600790816200013c91906200078f565b5083600990816200014e91906200078f565b5084600890816200016091906200078f565b5050505050505062000876565b6000604051905090565b600080fd5b600080fd5b600080fd5b600080fd5b6000601f19601f8301169050919050565b7f4e487b7100000000000000000000000000000000000000000000000000000000600052604160045260246000fd5b620001d6826200018b565b810181811067ffffffffffffffff82111715620001f857620001f76200019c565b5b80604052505050565b60006200020d6200016d565b90506200021b8282620001cb565b919050565b600067ffffffffffffffff8211156200023e576200023d6200019c565b5b62000249826200018b565b9050602081019050919050565b60005b838110156200027657808201518184015260208101905062000259565b60008484015250505050565b600062000299620002938462000220565b62000201565b905082815260208101848484011115620002b857620002b762000186565b5b620002c584828562000256565b509392505050565b600082601f830112620002e557620002e462000181565b5b8151620002f784826020860162000282565b91505092915050565b600073ffffffffffffffffffffffffffffffffffffffff82169050919050565b60006200032d8262000300565b9050919050565b6200033f8162000320565b81146200034b57600080fd5b50565b6000815190506200035f8162000334565b92915050565b6000819050919050565b6200037a8162000365565b81146200038657600080fd5b50565b6000815190506200039a816200036f565b92915050565b60008060008060008060c08789031215620003c057620003bf62000177565b5b600087015167ffffffffffffffff811115620003e157620003e06200017c565b5b620003ef89828a01620002cd565b965050602087015167ffffffffffffffff8111156200041357620004126200017c565b5b6200042189828a01620002cd565b955050604087015167ffffffffffffffff8111156200044557620004446200017c565b5b6200045389828a01620002cd565b94505060606200046689828a016200034e565b93505060806200047989828a0162000389565b92505060a06200048c89828a0162000389565b9150509295509295509295565b7f4e487b7100000000000000000000000000000000000000000000000000000000600052601160045260246000fd5b6000620004d58262000365565b9150620004e28362000365565b9250828202620004f28162000365565b915082820484148315176200050c576200050b62000499565b5b5092915050565b6000620005208262000365565b91506200052d8362000365565b925082820190508082111562000548576200054762000499565b5b92915050565b600081519050919050565b7f4e487b7100000000000000000000000000000000000000000000000000000000600052602260045260246000fd5b60006002820490506001821680620005a157607f821691505b602082108103620005b757620005b662000559565b5b50919050565b60008190508160005260206000209050919050565b60006020601f8301049050919050565b600082821b905092915050565b600060088302620006217fffffffffffffffffffffffffffffffffffffffffffffffffffffffffffffffff82620005e2565b6200062d8683620005e2565b95508019841693508086168417925050509392505050565b6000819050919050565b6000620006706200066a620006648462000365565b62000645565b62000365565b9050919050565b6000819050919050565b6200068c836200064f565b620006a46200069b8262000677565b848454620005ef565b825550505050565b600090565b620006bb620006ac565b620006c881848462000681565b505050565b5b81811015620006f057620006e4600082620006b1565b600181019050620006ce565b5050565b601f8211156200073f576200070981620005bd565b6200071484620005d2565b8101602085101562000724578190505b6200073c6200073385620005d2565b830182620006cd565b50505b505050565b600082821c905092915050565b6000620007646000198460080262000744565b1980831691505092915050565b60006200077f838362000751565b9150826002028217905092915050565b6200079a826200054e565b67ffffffffffffffff811115620007b657620007b56200019c565b5b620007c2825462000588565b620007cf828285620006f4565b600060209050601f831160018114620008075760008415620007f2578287015190505b620007fe858262000771565b8655506200086e565b601f1984166200081786620005bd565b60005b8281101562000841578489015182556001820191506020850194506020810190506200081a565b868310156200086157848901516200085d601f89168262000751565b8355505b6001600288020188555050505b505050505050565b610d1c80620008866000396000f3fe6080604052600436106100dd5760003560e01c8063cad6a9561161007f578063e01c039611610059578063e01c03961461025b578063e09336c114610286578063e4cbecdf146102b1578063f63e7db2146102dc576100dd565b8063cad6a956146101fb578063d8d7970014610226578063dc1997ea14610230576100dd565b806365ac2320116100bb57806365ac23201461014f578063946499b21461017a578063adf07791146101a5578063c24a0f8b146101d0576100dd565b80630b97bc86146100e25780631168c9a81461010d5780634f6be30f14610124575b600080fd5b3480156100ee57600080fd5b506100f7610307565b604051610104919061085c565b60405180910390f35b34801561011957600080fd5b5061012261030d565b005b34801561013057600080fd5b50610139610423565b604051610146919061085c565b60405180910390f35b34801561015b57600080fd5b50610164610429565b6040516101719190610907565b60405180910390f35b34801561018657600080fd5b5061018f6104b7565b60405161019c9190610907565b60405180910390f35b3480156101b157600080fd5b506101ba610545565b6040516101c7919061096a565b60405180910390f35b3480156101dc57600080fd5b506101e561056b565b6040516101f2919061085c565b60405180910390f35b34801561020757600080fd5b50610210610571565b60405161021d91906109a0565b60405180910390f35b61022e610584565b005b34801561023c57600080fd5b50610245610750565b604051610252919061096a565b60405180910390f35b34801561026757600080fd5b50610270610774565b60405161027d91906109a0565b60405180910390f35b34801561029257600080fd5b5061029b610787565b6040516102a8919061085c565b60405180910390f35b3480156102bd57600080fd5b506102c66107af565b6040516102d3919061085c565b60405180910390f35b3480156102e857600080fd5b506102f16107b5565b6040516102fe9190610907565b60405180910390f35b60045481565b60008054906101000a900473ffffffffffffffffffffffffffffffffffffffff1673ffffffffffffffffffffffffffffffffffffffff163373ffffffffffffffffffffffffffffffffffffffff161461039b576040517f08c379a000000000000000000000000000000000000000000000000000000000815260040161039290610a2d565b60405180910390fd5b600660009054906101000a900460ff16156103eb576040517f08c379a00000000000000000000000000000000000000000000000000000000081526004016103e290610a99565b60405180910390fd5b6001600660006101000a81548160ff0219169083151502179055506000600660016101000a81548160ff021916908315150217905550565b60035481565b6008805461043690610ae8565b80601f016020809104026020016040519081016040528092919081815260200182805461046290610ae8565b80156104af5780601f10610484576101008083540402835291602001916104af565b820191906000526020600020905b81548152906001019060200180831161049257829003601f168201915b505050505081565b600780546104c490610ae8565b80601f01602080910402602001604051908101604052809291908181526020018280546104f090610ae8565b801561053d5780601f106105125761010080835404028352916020019161053d565b820191906000526020600020905b81548152906001019060200180831161052057829003601f168201915b505050505081565b600160009054906101000a900473ffffffffffffffffffffffffffffffffffffffff1681565b60055481565b600660009054906101000a900460ff1681565b600160009054906101000a900473ffffffffffffffffffffffffffffffffffffffff1673ffffffffffffffffffffffffffffffffffffffff163373ffffffffffffffffffffffffffffffffffffffff1614610614576040517f08c379a000000000000000000000000000000000000000000000000000000000815260040161060b90610b8b565b60405180910390fd5b600660019054906101000a900460ff16610663576040517f08c379a000000000000000000000000000000000000000000000000000000000815260040161065a90610bf7565b60405180910390fd5b60025434146106a7576040517f08c379a000000000000000000000000000000000000000000000000000000000815260040161069e90610c63565b60405180910390fd5b60055442106106e7576001600660006101000a81548160ff0219169083151502179055506000600660016101000a81548160ff0219169083151502179055505b60008054906101000a900473ffffffffffffffffffffffffffffffffffffffff1673ffffffffffffffffffffffffffffffffffffffff166108fc349081150290604051600060405180830381858888f1935050505015801561074d573d6000803e3d6000fd5b50565b60008054906101000a900473ffffffffffffffffffffffffffffffffffffffff1681565b600660019054906101000a900460ff1681565b6000600554421061079b57600090506107ac565b426005546107a99190610cb2565b90505b90565b60025481565b600980546107c290610ae8565b80601f01602080910402602001604051908101604052809291908181526020018280546107ee90610ae8565b801561083b5780601f106108105761010080835404028352916020019161083b565b820191906000526020600020905b81548152906001019060200180831161081e57829003601f168201915b505050505081565b6000819050919050565b61085681610843565b82525050565b6000602082019050610871600083018461084d565b92915050565b600081519050919050565b600082825260208201905092915050565b60005b838110156108b1578082015181840152602081019050610896565b60008484015250505050565b6000601f19601f8301169050919050565b60006108d982610877565b6108e38185610882565b93506108f3818560208601610893565b6108fc816108bd565b840191505092915050565b6000602082019050818103600083015261092181846108ce565b905092915050565b600073ffffffffffffffffffffffffffffffffffffffff82169050919050565b600061095482610929565b9050919050565b61096481610949565b82525050565b600060208201905061097f600083018461095b565b92915050565b60008115159050919050565b61099a81610985565b82525050565b60006020820190506109b56000830184610991565b92915050565b7f4f6e6c7920746865206c616e646c6f72642063616e2063616c6c20746869732060008201527f66756e6374696f6e2e0000000000000000000000000000000000000000000000602082015250565b6000610a17602983610882565b9150610a22826109bb565b604082019050919050565b60006020820190508181036000830152610a4681610a0a565b9050919050565b7f4c6561736520697320616c7265616479207465726d696e617465642e00000000600082015250565b6000610a83601c83610882565b9150610a8e82610a4d565b602082019050919050565b60006020820190508181036000830152610ab281610a76565b9050919050565b7f4e487b7100000000000000000000000000000000000000000000000000000000600052602260045260246000fd5b60006002820490506001821680610b0057607f821691505b602082108103610b1357610b12610ab9565b5b50919050565b7f4f6e6c79207468652074656e616e742063616e2063616c6c207468697320667560008201527f6e6374696f6e2e00000000000000000000000000000000000000000000000000602082015250565b6000610b75602783610882565b9150610b8082610b19565b604082019050919050565b60006020820190508181036000830152610ba481610b68565b9050919050565b7f4c65617365206973206e6f74206163746976652e000000000000000000000000600082015250565b6000610be1601483610882565b9150610bec82610bab565b602082019050919050565b60006020820190508181036000830152610c1081610bd4565b9050919050565b7f496e636f7272656374207061796d656e7420616d6f756e742e00000000000000600082015250565b6000610c4d601983610882565b9150610c5882610c17565b602082019050919050565b60006020820190508181036000830152610c7c81610c40565b9050919050565b7f4e487b7100000000000000000000000000000000000000000000000000000000600052601160045260246000fd5b6000610cbd82610843565b9150610cc883610843565b9250828203905081811115610ce057610cdf610c83565b5b9291505056fea264697066735822122086a2424c46848740c79d08db9e0b28d4d3d87feab45638ddd64f57087534133764736f6c63430008110033",
  "linkReferences": {},
  "deployedLinkReferences": {}
}