{
  "_format": "hh-sol-artifact-1",
  "contractName": "LeaseAgreement",
  "sourceName": "contracts/BuyMeACoffee.sol",
  "abi": [
    {
      "inputs": [
        {
          "internalType": "address",
          "name": "_tenant",
          "type": "address"
        },
        {
          "internalType": "uint256",
          "name": "_monthlyRent",
          "type": "uint256"
        },
        {
          "internalType": "uint256",
          "name": "_leaseDurationMonths",
          "type": "uint256"
        }
      ],
      "stateMutability": "nonpayable",
      "type": "constructor"
    },
    {
      "inputs": [],
      "name": "endDate",
      "outputs": [
        {
          "internalType": "uint256",
          "name": "",
          "type": "uint256"
        }
      ],
      "stateMutability": "view",
      "type": "function"
    },
    {
      "inputs": [],
      "name": "getRemainingLeaseDuration",
      "outputs": [
        {
          "internalType": "uint256",
          "name": "",
          "type": "uint256"
        }
      ],
      "stateMutability": "view",
      "type": "function"
    },
    {
      "inputs": [],
      "name": "landlord",
      "outputs": [
        {
          "internalType": "address",
          "name": "",
          "type": "address"
        }
      ],
      "stateMutability": "view",
      "type": "function"
    },
    {
      "inputs": [],
      "name": "leaseActive",
      "outputs": [
        {
          "internalType": "bool",
          "name": "",
          "type": "bool"
        }
      ],
      "stateMutability": "view",
      "type": "function"
    },
    {
      "inputs": [],
      "name": "leaseDuration",
      "outputs": [
        {
          "internalType": "uint256",
          "name": "",
          "type": "uint256"
        }
      ],
      "stateMutability": "view",
      "type": "function"
    },
    {
      "inputs": [],
      "name": "leaseTerminated",
      "outputs": [
        {
          "internalType": "bool",
          "name": "",
          "type": "bool"
        }
      ],
      "stateMutability": "view",
      "type": "function"
    },
    {
      "inputs": [],
      "name": "makePayment",
      "outputs": [],
      "stateMutability": "payable",
      "type": "function"
    },
    {
      "inputs": [],
      "name": "monthlyRent",
      "outputs": [
        {
          "internalType": "uint256",
          "name": "",
          "type": "uint256"
        }
      ],
      "stateMutability": "view",
      "type": "function"
    },
    {
      "inputs": [],
      "name": "startDate",
      "outputs": [
        {
          "internalType": "uint256",
          "name": "",
          "type": "uint256"
        }
      ],
      "stateMutability": "view",
      "type": "function"
    },
    {
      "inputs": [],
      "name": "tenant",
      "outputs": [
        {
          "internalType": "address",
          "name": "",
          "type": "address"
        }
      ],
      "stateMutability": "view",
      "type": "function"
    },
    {
      "inputs": [],
      "name": "terminateLease",
      "outputs": [],
      "stateMutability": "nonpayable",
      "type": "function"
    }
  ],
  "bytecode": "0x60806040523480156200001157600080fd5b5060405162000c4238038062000c428339818101604052810190620000379190620001d9565b336000806101000a81548173ffffffffffffffffffffffffffffffffffffffff021916908373ffffffffffffffffffffffffffffffffffffffff16021790555082600160006101000a81548173ffffffffffffffffffffffffffffffffffffffff021916908373ffffffffffffffffffffffffffffffffffffffff1602179055508160028190555062278d0081620000d0919062000264565b60038190555042600481905550600354600454620000ef9190620002af565b6005819055506000600660006101000a81548160ff0219169083151502179055506001600660016101000a81548160ff021916908315150217905550505050620002ea565b600080fd5b600073ffffffffffffffffffffffffffffffffffffffff82169050919050565b6000620001668262000139565b9050919050565b620001788162000159565b81146200018457600080fd5b50565b60008151905062000198816200016d565b92915050565b6000819050919050565b620001b3816200019e565b8114620001bf57600080fd5b50565b600081519050620001d381620001a8565b92915050565b600080600060608486031215620001f557620001f462000134565b5b6000620002058682870162000187565b93505060206200021886828701620001c2565b92505060406200022b86828701620001c2565b9150509250925092565b7f4e487b7100000000000000000000000000000000000000000000000000000000600052601160045260246000fd5b600062000271826200019e565b91506200027e836200019e565b92508282026200028e816200019e565b91508282048414831517620002a857620002a762000235565b5b5092915050565b6000620002bc826200019e565b9150620002c9836200019e565b9250828201905080821115620002e457620002e362000235565b5b92915050565b61094880620002fa6000396000f3fe60806040526004361061009c5760003560e01c8063cad6a95611610064578063cad6a95614610164578063d8d797001461018f578063dc1997ea14610199578063e01c0396146101c4578063e09336c1146101ef578063e4cbecdf1461021a5761009c565b80630b97bc86146100a15780631168c9a8146100cc5780634f6be30f146100e3578063adf077911461010e578063c24a0f8b14610139575b600080fd5b3480156100ad57600080fd5b506100b6610245565b6040516100c39190610589565b60405180910390f35b3480156100d857600080fd5b506100e161024b565b005b3480156100ef57600080fd5b506100f8610361565b6040516101059190610589565b60405180910390f35b34801561011a57600080fd5b50610123610367565b60405161013091906105e5565b60405180910390f35b34801561014557600080fd5b5061014e61038d565b60405161015b9190610589565b60405180910390f35b34801561017057600080fd5b50610179610393565b604051610186919061061b565b60405180910390f35b6101976103a6565b005b3480156101a557600080fd5b506101ae61050b565b6040516101bb91906105e5565b60405180910390f35b3480156101d057600080fd5b506101d961052f565b6040516101e6919061061b565b60405180910390f35b3480156101fb57600080fd5b50610204610542565b6040516102119190610589565b60405180910390f35b34801561022657600080fd5b5061022f61056a565b60405161023c9190610589565b60405180910390f35b60045481565b60008054906101000a900473ffffffffffffffffffffffffffffffffffffffff1673ffffffffffffffffffffffffffffffffffffffff163373ffffffffffffffffffffffffffffffffffffffff16146102d9576040517f08c379a00000000000000000000000000000000000000000000000000000000081526004016102d0906106b9565b60405180910390fd5b600660009054906101000a900460ff1615610329576040517f08c379a000000000000000000000000000000000000000000000000000000000815260040161032090610725565b60405180910390fd5b6001600660006101000a81548160ff0219169083151502179055506000600660016101000a81548160ff021916908315150217905550565b60035481565b600160009054906101000a900473ffffffffffffffffffffffffffffffffffffffff1681565b60055481565b600660009054906101000a900460ff1681565b600160009054906101000a900473ffffffffffffffffffffffffffffffffffffffff1673ffffffffffffffffffffffffffffffffffffffff163373ffffffffffffffffffffffffffffffffffffffff1614610436576040517f08c379a000000000000000000000000000000000000000000000000000000000815260040161042d906107b7565b60405180910390fd5b600660019054906101000a900460ff16610485576040517f08c379a000000000000000000000000000000000000000000000000000000000815260040161047c90610823565b60405180910390fd5b60025434146104c9576040517f08c379a00000000000000000000000000000000000000000000000000000000081526004016104c09061088f565b60405180910390fd5b6005544210610509576001600660006101000a81548160ff0219169083151502179055506000600660016101000a81548160ff0219169083151502179055505b565b60008054906101000a900473ffffffffffffffffffffffffffffffffffffffff1681565b600660019054906101000a900460ff1681565b600060055442106105565760009050610567565b4260055461056491906108de565b90505b90565b60025481565b6000819050919050565b61058381610570565b82525050565b600060208201905061059e600083018461057a565b92915050565b600073ffffffffffffffffffffffffffffffffffffffff82169050919050565b60006105cf826105a4565b9050919050565b6105df816105c4565b82525050565b60006020820190506105fa60008301846105d6565b92915050565b60008115159050919050565b61061581610600565b82525050565b6000602082019050610630600083018461060c565b92915050565b600082825260208201905092915050565b7f4f6e6c7920746865206c616e646c6f72642063616e2063616c6c20746869732060008201527f66756e6374696f6e2e0000000000000000000000000000000000000000000000602082015250565b60006106a3602983610636565b91506106ae82610647565b604082019050919050565b600060208201905081810360008301526106d281610696565b9050919050565b7f4c6561736520697320616c7265616479207465726d696e617465642e00000000600082015250565b600061070f601c83610636565b915061071a826106d9565b602082019050919050565b6000602082019050818103600083015261073e81610702565b9050919050565b7f4f6e6c79207468652074656e616e742063616e2063616c6c207468697320667560008201527f6e6374696f6e2e00000000000000000000000000000000000000000000000000602082015250565b60006107a1602783610636565b91506107ac82610745565b604082019050919050565b600060208201905081810360008301526107d081610794565b9050919050565b7f4c65617365206973206e6f74206163746976652e000000000000000000000000600082015250565b600061080d601483610636565b9150610818826107d7565b602082019050919050565b6000602082019050818103600083015261083c81610800565b9050919050565b7f496e636f7272656374207061796d656e7420616d6f756e742e00000000000000600082015250565b6000610879601983610636565b915061088482610843565b602082019050919050565b600060208201905081810360008301526108a88161086c565b9050919050565b7f4e487b7100000000000000000000000000000000000000000000000000000000600052601160045260246000fd5b60006108e982610570565b91506108f483610570565b925082820390508181111561090c5761090b6108af565b5b9291505056fea26469706673582212200716ef5d3e235bcf49732e02301b89f579713344270fbcdaf1a173965740d37e64736f6c63430008110033",
  "linkReferences": {},
  "deployedLinkReferences": {}
}